{
  "contractName": "Item",
  "abi": [
    {
      "inputs": [
        {
          "internalType": "uint256",
          "name": "_biddingTime",
          "type": "uint256"
        },
        {
          "internalType": "address payable",
          "name": "_seller",
          "type": "address"
        },
        {
          "internalType": "string",
          "name": "_image",
          "type": "string"
        },
        {
          "internalType": "string",
          "name": "_product_title",
          "type": "string"
        },
        {
          "internalType": "string",
          "name": "_product_description",
          "type": "string"
        }
      ],
      "payable": false,
      "stateMutability": "nonpayable",
      "type": "constructor"
    },
    {
      "anonymous": false,
      "inputs": [
        {
          "indexed": false,
          "internalType": "address",
          "name": "leader",
          "type": "address"
        },
        {
          "indexed": false,
          "internalType": "uint256",
          "name": "new_highest_bid",
          "type": "uint256"
        }
      ],
      "name": "bid_increased",
      "type": "event"
    },
    {
      "anonymous": false,
      "inputs": [
        {
          "indexed": false,
          "internalType": "address",
          "name": "winner",
          "type": "address"
        },
        {
          "indexed": false,
          "internalType": "uint256",
          "name": "new_highest_bid",
          "type": "uint256"
        }
      ],
      "name": "sale_completed",
      "type": "event"
    },
    {
      "constant": true,
      "inputs": [],
      "name": "duration",
      "outputs": [
        {
          "internalType": "uint256",
          "name": "",
          "type": "uint256"
        }
      ],
      "payable": false,
      "stateMutability": "view",
      "type": "function"
    },
    {
      "constant": true,
      "inputs": [],
      "name": "highest_bid",
      "outputs": [
        {
          "internalType": "uint256",
          "name": "",
          "type": "uint256"
        }
      ],
      "payable": false,
      "stateMutability": "view",
      "type": "function"
    },
    {
      "constant": true,
      "inputs": [],
      "name": "image",
      "outputs": [
        {
          "internalType": "string",
          "name": "",
          "type": "string"
        }
      ],
      "payable": false,
      "stateMutability": "view",
      "type": "function"
    },
    {
      "constant": true,
      "inputs": [],
      "name": "leader",
      "outputs": [
        {
          "internalType": "address",
          "name": "",
          "type": "address"
        }
      ],
      "payable": false,
      "stateMutability": "view",
      "type": "function"
    },
    {
      "constant": true,
      "inputs": [],
      "name": "product_description",
      "outputs": [
        {
          "internalType": "string",
          "name": "",
          "type": "string"
        }
      ],
      "payable": false,
      "stateMutability": "view",
      "type": "function"
    },
    {
      "constant": true,
      "inputs": [],
      "name": "product_title",
      "outputs": [
        {
          "internalType": "string",
          "name": "",
          "type": "string"
        }
      ],
      "payable": false,
      "stateMutability": "view",
      "type": "function"
    },
    {
      "constant": true,
      "inputs": [],
      "name": "return_address",
      "outputs": [
        {
          "internalType": "address payable",
          "name": "",
          "type": "address"
        }
      ],
      "payable": false,
      "stateMutability": "view",
      "type": "function"
    },
    {
      "constant": true,
      "inputs": [],
      "name": "seller",
      "outputs": [
        {
          "internalType": "address payable",
          "name": "",
          "type": "address"
        }
      ],
      "payable": false,
      "stateMutability": "view",
      "type": "function"
    },
    {
      "constant": false,
      "inputs": [],
      "name": "bid",
      "outputs": [],
      "payable": true,
      "stateMutability": "payable",
      "type": "function"
    },
    {
      "constant": false,
      "inputs": [],
      "name": "withdraw",
      "outputs": [],
      "payable": false,
      "stateMutability": "nonpayable",
      "type": "function"
    },
    {
      "constant": false,
      "inputs": [],
      "name": "complete_sale",
      "outputs": [],
      "payable": false,
      "stateMutability": "nonpayable",
      "type": "function"
    },
    {
      "constant": true,
      "inputs": [],
      "name": "get_highest_bid",
      "outputs": [
        {
          "internalType": "uint256",
          "name": "",
          "type": "uint256"
        }
      ],
      "payable": false,
      "stateMutability": "view",
      "type": "function"
    },
    {
      "constant": true,
      "inputs": [],
      "name": "get_time",
      "outputs": [
        {
          "internalType": "uint256",
          "name": "",
          "type": "uint256"
        }
      ],
      "payable": false,
      "stateMutability": "view",
      "type": "function"
    },
    {
      "constant": true,
      "inputs": [],
      "name": "get_pending_returns",
      "outputs": [
        {
          "internalType": "uint256",
          "name": "",
          "type": "uint256"
        }
      ],
      "payable": false,
      "stateMutability": "view",
      "type": "function"
    },
    {
      "constant": true,
      "inputs": [],
      "name": "get_current_address",
      "outputs": [
        {
          "internalType": "address",
          "name": "",
          "type": "address"
        }
      ],
      "payable": false,
      "stateMutability": "view",
      "type": "function"
    },
    {
      "constant": true,
      "inputs": [],
      "name": "get_leader",
      "outputs": [
        {
          "internalType": "address",
          "name": "",
          "type": "address"
        }
      ],
      "payable": false,
      "stateMutability": "view",
      "type": "function"
    },
    {
      "constant": true,
      "inputs": [],
      "name": "get_balance_contract",
      "outputs": [
        {
          "internalType": "uint256",
          "name": "",
          "type": "uint256"
        }
      ],
      "payable": false,
      "stateMutability": "view",
      "type": "function"
    },
    {
      "constant": true,
      "inputs": [],
      "name": "get_balance_wallet",
      "outputs": [
        {
          "internalType": "uint256",
          "name": "",
          "type": "uint256"
        }
      ],
      "payable": false,
      "stateMutability": "view",
      "type": "function"
    },
    {
      "constant": true,
      "inputs": [],
      "name": "get_title",
      "outputs": [
        {
          "internalType": "string",
          "name": "",
          "type": "string"
        }
      ],
      "payable": false,
      "stateMutability": "view",
      "type": "function"
    },
    {
      "constant": true,
      "inputs": [],
      "name": "get_image",
      "outputs": [
        {
          "internalType": "string",
          "name": "",
          "type": "string"
        }
      ],
      "payable": false,
      "stateMutability": "view",
      "type": "function"
    },
    {
      "constant": true,
      "inputs": [],
      "name": "get_description",
      "outputs": [
        {
          "internalType": "string",
          "name": "",
          "type": "string"
        }
      ],
      "payable": false,
      "stateMutability": "view",
      "type": "function"
    }
  ],
  "bytecode": "0x60806040523480156200001157600080fd5b506040516200162c3803806200162c833981810160405260a08110156200003757600080fd5b810190808051906020019092919080519060200190929190805160405193929190846401000000008211156200006c57600080fd5b838201915060208201858111156200008357600080fd5b8251866001820283011164010000000082111715620000a157600080fd5b8083526020830192505050908051906020019080838360005b83811015620000d7578082015181840152602081019050620000ba565b50505050905090810190601f168015620001055780820380516001836020036101000a031916815260200191505b50604052602001805160405193929190846401000000008211156200012957600080fd5b838201915060208201858111156200014057600080fd5b82518660018202830111640100000000821117156200015e57600080fd5b8083526020830192505050908051906020019080838360005b838110156200019457808201518184015260208101905062000177565b50505050905090810190601f168015620001c25780820380516001836020036101000a031916815260200191505b5060405260200180516040519392919084640100000000821115620001e657600080fd5b83820191506020820185811115620001fd57600080fd5b82518660018202830111640100000000821117156200021b57600080fd5b8083526020830192505050908051906020019080838360005b838110156200025157808201518184015260208101905062000234565b50505050905090810190601f1680156200027f5780820380516001836020036101000a031916815260200191505b50604052505050836000806101000a81548173ffffffffffffffffffffffffffffffffffffffff021916908373ffffffffffffffffffffffffffffffffffffffff1602179055508442016001819055508260029080519060200190620002e792919062000325565b5081600390805190602001906200030092919062000325565b5080600490805190602001906200031992919062000325565b505050505050620003d4565b828054600181600116156101000203166002900490600052602060002090601f016020900481019282601f106200036857805160ff191683800117855562000399565b8280016001018555821562000399579182015b82811115620003985782518255916020019190600101906200037b565b5b509050620003a89190620003ac565b5090565b620003d191905b80821115620003cd576000816000905550600101620003b3565b5090565b90565b61124880620003e46000396000f3fe60806040526004361061012a5760003560e01c806374177c24116100ab578063b2ca2ad91161006f578063b2ca2ad9146105af578063b81d647e1461063f578063c2b8a50e1461066a578063e5c60091146106c1578063ec78eb38146106ec578063f3ccaac0146107175761012a565b806374177c241461041b578063839d7f1114610472578063966a1961146105025780639ed542bf1461052d578063a986cb18146105845761012a565b80632d0e9743116100f25780632d0e9743146102765780633ccfd60b1461028d5780633cf807ac146102a457806340eedabb146103345780635bd667591461038b5761012a565b806308551a531461012f5780630fb5a6b4146101865780631998aeef146101b15780631ca2428c146101bb5780631f5c7871146101e6575b600080fd5b34801561013b57600080fd5b506101446107a7565b604051808273ffffffffffffffffffffffffffffffffffffffff1673ffffffffffffffffffffffffffffffffffffffff16815260200191505060405180910390f35b34801561019257600080fd5b5061019b6107cc565b6040518082815260200191505060405180910390f35b6101b96107d2565b005b3480156101c757600080fd5b506101d0610974565b6040518082815260200191505060405180910390f35b3480156101f257600080fd5b506101fb61097c565b6040518080602001828103825283818151815260200191508051906020019080838360005b8381101561023b578082015181840152602081019050610220565b50505050905090810190601f1680156102685780820380516001836020036101000a031916815260200191505b509250505060405180910390f35b34801561028257600080fd5b5061028b610a1a565b005b34801561029957600080fd5b506102a2610bef565b005b3480156102b057600080fd5b506102b9610d17565b6040518080602001828103825283818151815260200191508051906020019080838360005b838110156102f95780820151818401526020810190506102de565b50505050905090810190601f1680156103265780820380516001836020036101000a031916815260200191505b509250505060405180910390f35b34801561034057600080fd5b50610349610db9565b604051808273ffffffffffffffffffffffffffffffffffffffff1673ffffffffffffffffffffffffffffffffffffffff16815260200191505060405180910390f35b34801561039757600080fd5b506103a0610ddf565b6040518080602001828103825283818151815260200191508051906020019080838360005b838110156103e05780820151818401526020810190506103c5565b50505050905090810190601f16801561040d5780820380516001836020036101000a031916815260200191505b509250505060405180910390f35b34801561042757600080fd5b50610430610e81565b604051808273ffffffffffffffffffffffffffffffffffffffff1673ffffffffffffffffffffffffffffffffffffffff16815260200191505060405180910390f35b34801561047e57600080fd5b50610487610ea7565b6040518080602001828103825283818151815260200191508051906020019080838360005b838110156104c75780820151818401526020810190506104ac565b50505050905090810190601f1680156104f45780820380516001836020036101000a031916815260200191505b509250505060405180910390f35b34801561050e57600080fd5b50610517610f49565b6040518082815260200191505060405180910390f35b34801561053957600080fd5b50610542610f53565b604051808273ffffffffffffffffffffffffffffffffffffffff1673ffffffffffffffffffffffffffffffffffffffff16815260200191505060405180910390f35b34801561059057600080fd5b50610599610f7d565b6040518082815260200191505060405180910390f35b3480156105bb57600080fd5b506105c461100a565b6040518080602001828103825283818151815260200191508051906020019080838360005b838110156106045780820151818401526020810190506105e9565b50505050905090810190601f1680156106315780820380516001836020036101000a031916815260200191505b509250505060405180910390f35b34801561064b57600080fd5b506106546110a8565b6040518082815260200191505060405180910390f35b34801561067657600080fd5b5061067f6110b2565b604051808273ffffffffffffffffffffffffffffffffffffffff1673ffffffffffffffffffffffffffffffffffffffff16815260200191505060405180910390f35b3480156106cd57600080fd5b506106d66110ba565b6040518082815260200191505060405180910390f35b3480156106f857600080fd5b506107016110c0565b6040518082815260200191505060405180910390f35b34801561072357600080fd5b5061072c6110df565b6040518080602001828103825283818151815260200191508051906020019080838360005b8381101561076c578082015181840152602081019050610751565b50505050905090810190601f1680156107995780820380516001836020036101000a031916815260200191505b509250505060405180910390f35b6000809054906101000a900473ffffffffffffffffffffffffffffffffffffffff1681565b60015481565b60015442106107e057600080fd5b6611c37937e08000600654013411610843576040517f08c379a00000000000000000000000000000000000000000000000000000000081526004018080602001828103825260468152602001806111a96046913960600191505060405180910390fd5b6000600654146108bf5760065460086000600560009054906101000a900473ffffffffffffffffffffffffffffffffffffffff1673ffffffffffffffffffffffffffffffffffffffff1673ffffffffffffffffffffffffffffffffffffffff168152602001908152602001600020600082825401925050819055505b33600560006101000a81548173ffffffffffffffffffffffffffffffffffffffff021916908373ffffffffffffffffffffffffffffffffffffffff160217905550346006819055507fac86b1aec2c723fb59f9c047e7ff89be5835a7669d4e9ff2f0682b7d48d57e9c3334604051808373ffffffffffffffffffffffffffffffffffffffff1673ffffffffffffffffffffffffffffffffffffffff1681526020018281526020019250505060405180910390a1565b600047905090565b60048054600181600116156101000203166002900480601f016020809104026020016040519081016040528092919081815260200182805460018160011615610100020316600290048015610a125780601f106109e757610100808354040283529160200191610a12565b820191906000526020600020905b8154815290600101906020018083116109f557829003601f168201915b505050505081565b6001544211610a74576040517f08c379a000000000000000000000000000000000000000000000000000000000815260040180806020018281038252602b81526020018061117e602b913960400191505060405180910390fd5b600a60009054906101000a900460ff16610ad9576040517f08c379a00000000000000000000000000000000000000000000000000000000081526004018080602001828103825260258152602001806111ef6025913960400191505060405180910390fd5b6000600a60006101000a81548160ff0219169083151502179055506000809054906101000a900473ffffffffffffffffffffffffffffffffffffffff1673ffffffffffffffffffffffffffffffffffffffff166108fc6006549081150290604051600060405180830381858888f19350505050158015610b5d573d6000803e3d6000fd5b507fa223c5750d850fe04bc809f724b04e273b30a0387c30e920326fc435385da4cc600560009054906101000a900473ffffffffffffffffffffffffffffffffffffffff16600654604051808373ffffffffffffffffffffffffffffffffffffffff1673ffffffffffffffffffffffffffffffffffffffff1681526020018281526020019250505060405180910390a1565b6000600860003373ffffffffffffffffffffffffffffffffffffffff1673ffffffffffffffffffffffffffffffffffffffff1681526020019081526020016000205490506000600960003373ffffffffffffffffffffffffffffffffffffffff1673ffffffffffffffffffffffffffffffffffffffff168152602001908152602001600020549050600081830390503373ffffffffffffffffffffffffffffffffffffffff166108fc829081150290604051600060405180830381858888f19350505050158015610cc4573d6000803e3d6000fd5b5080600960003373ffffffffffffffffffffffffffffffffffffffff1673ffffffffffffffffffffffffffffffffffffffff16815260200190815260200160002060008282540192505081905550505050565b606060028054600181600116156101000203166002900480601f016020809104026020016040519081016040528092919081815260200182805460018160011615610100020316600290048015610daf5780601f10610d8457610100808354040283529160200191610daf565b820191906000526020600020905b815481529060010190602001808311610d9257829003601f168201915b5050505050905090565b600560009054906101000a900473ffffffffffffffffffffffffffffffffffffffff1681565b606060038054600181600116156101000203166002900480601f016020809104026020016040519081016040528092919081815260200182805460018160011615610100020316600290048015610e775780601f10610e4c57610100808354040283529160200191610e77565b820191906000526020600020905b815481529060010190602001808311610e5a57829003601f168201915b5050505050905090565b600760009054906101000a900473ffffffffffffffffffffffffffffffffffffffff1681565b606060048054600181600116156101000203166002900480601f016020809104026020016040519081016040528092919081815260200182805460018160011615610100020316600290048015610f3f5780601f10610f1457610100808354040283529160200191610f3f565b820191906000526020600020905b815481529060010190602001808311610f2257829003601f168201915b5050505050905090565b6000600154905090565b6000600560009054906101000a900473ffffffffffffffffffffffffffffffffffffffff16905090565b600080600960003373ffffffffffffffffffffffffffffffffffffffff1673ffffffffffffffffffffffffffffffffffffffff16815260200190815260200160002054600860003373ffffffffffffffffffffffffffffffffffffffff1673ffffffffffffffffffffffffffffffffffffffff168152602001908152602001600020540390508091505090565b60038054600181600116156101000203166002900480601f0160208091040260200160405190810160405280929190818152602001828054600181600116156101000203166002900480156110a05780601f10611075576101008083540402835291602001916110a0565b820191906000526020600020905b81548152906001019060200180831161108357829003601f168201915b505050505081565b6000600654905090565b600033905090565b60065481565b60003373ffffffffffffffffffffffffffffffffffffffff1631905090565b60028054600181600116156101000203166002900480601f0160208091040260200160405190810160405280929190818152602001828054600181600116156101000203166002900480156111755780601f1061114a57610100808354040283529160200191611175565b820191906000526020600020905b81548152906001019060200180831161115857829003601f168201915b50505050508156fe546f6f20736f6f6e20746f2063616c6c2e204974656d206973207374696c6c20757020666f722073616c6550726f706f73656420626964206e6565647320746f20626520686967686572207468616e2063757272656e742062696420627920302e30303520455448206174206c65617374546865206974656d2073616c6520686173206265656e2063616c6c656420616c7265616479a265627a7a72315820adfd67bab0ca649557cca012995bd24c42d0e6e8c93a7a1aac7e0fd742c7e78864736f6c63430005100032",
  "source": "pragma solidity >=0.4.22 <0.7.0;\n\ncontract ItemManager{\n    Item[] public items; \n   \n    function putItemForSale(uint _duration, string memory _image, string memory _product_title, string memory _product_description)public{\n        Item item = new Item(_duration, msg.sender, _image, _product_title, _product_description);\n        items.push(item);\n    }\n    \n    function returnAllAuctions() public view returns(Item[] memory){\n        return items;\n    }\n}\n\n\ncontract Item {\n    /* Constructor parameters */\n    address payable public seller;\n    uint public duration;\n    string public image;\n    string public product_title;\n    string public product_description;\n\n    /* Leader Parameters */\n    address public leader;\n    uint public highest_bid;\n\n    /* Withdraws */\n    address payable public return_address;\n    mapping(address => uint) pending_returns;\n    mapping(address => uint) paidout_returns;\n\n    /* Checking if auction has been called already */\n\n    bool ongoing;\n\n    /* Event Messages */\n    event bid_increased(address leader, uint new_highest_bid);\n    event sale_completed(address winner, uint new_highest_bid);\n\n    constructor(\n        uint _biddingTime,\n        address payable _seller,\n        string memory _image,\n        string memory _product_title,\n        string memory _product_description\n    ) public {\n        seller = _seller;\n        duration = now + _biddingTime;\n        image = _image;\n        product_title = _product_title;\n        product_description = _product_description;\n    }\n\n    function bid() public payable {\n        require(now < duration);\n\n        require(msg.value > highest_bid + 5000000000000000,\n            \"Proposed bid needs to be higher than current bid by 0.005 ETH at least\"\n        );\n\n        if (highest_bid != 0) {\n            pending_returns[leader] += highest_bid;\n        }\n        leader = msg.sender;\n        highest_bid = msg.value;\n        \n        /* if (duration-now < 180) {\n           duration = now + 180;\n        } */\n        emit bid_increased(msg.sender, msg.value);\n    }\n\n    function withdraw() public {\n        uint amount = pending_returns[msg.sender];\n        uint paidout = paidout_returns[msg.sender];\n        uint payout = amount-paidout;\n\n        msg.sender.transfer(payout);        \n        paidout_returns[msg.sender] += payout;\n    }\n\n    function complete_sale() public {\n        require(now > duration, \"Too soon to call. Item is still up for sale\");\n        require(ongoing, \"The item sale has been called already\");\n\n        ongoing = false;\n        seller.transfer(highest_bid);\n\n        emit sale_completed(leader, highest_bid);\n    }\n\n\n    //View functions\n    function get_highest_bid() public view returns (uint) {\n        return highest_bid;\n    }\n\n    function get_time() public view returns (uint) {\n        return duration;\n    }\n\n    function get_pending_returns() public view returns (uint) {\n            uint address_returns;\n            address_returns = pending_returns[msg.sender]- paidout_returns[msg.sender];\n            return address_returns;\n        }\n\n    function get_current_address() public view returns (address) {\n            return msg.sender;\n        }\n    \n    function get_leader() public view returns (address) {\n        return leader;\n    }\n\n    function get_balance_contract() public view returns(uint256){\n        return address(this).balance;\n    }\n\n    function get_balance_wallet() public view returns(uint256){\n        return address(msg.sender).balance;\n    }\n    \n    function get_title() public view returns(string memory){\n        return product_title;\n    }\n\n    function get_image() public view returns(string memory){\n        return image;\n    }\n    \n    function get_description() public view returns(string memory){\n        return product_description;\n    }\n\n}\n",
  "sourcePath": "/Users/michael/Documents/github/EthereumLoupGarou/blockchain/contracts/SimpleAuction.sol",
  "compiler": {
    "name": "solc",
    "version": "0.5.16+commit.9c3226ce.Emscripten.clang"
  },
  "schemaVersion": "3.3.2",
  "updatedAt": "2020-12-15T15:18:25.216Z",
  "networkType": "ethereum",
  "devdoc": {
    "methods": {}
  },
  "userdoc": {
    "methods": {}
  }
}