{
  "contractName": "SimpleAuction",
  "abi": [
    {
      "inputs": [
        {
          "internalType": "uint256",
          "name": "_biddingTime",
          "type": "uint256"
        },
        {
          "internalType": "address payable",
          "name": "_beneficiary",
          "type": "address"
        }
      ],
      "payable": false,
      "stateMutability": "nonpayable",
      "type": "constructor"
    },
    {
      "anonymous": false,
      "inputs": [
        {
          "indexed": false,
          "internalType": "address",
          "name": "winner",
          "type": "address"
        },
        {
          "indexed": false,
          "internalType": "uint256",
          "name": "amount",
          "type": "uint256"
        }
      ],
      "name": "AuctionEnded",
      "type": "event"
    },
    {
      "anonymous": false,
      "inputs": [
        {
          "indexed": false,
          "internalType": "address",
          "name": "bidder",
          "type": "address"
        },
        {
          "indexed": false,
          "internalType": "uint256",
          "name": "amount",
          "type": "uint256"
        }
      ],
      "name": "HighestBidIncreased",
      "type": "event"
    },
    {
      "constant": true,
      "inputs": [],
      "name": "auctionEndTime",
      "outputs": [
        {
          "internalType": "uint256",
          "name": "",
          "type": "uint256"
        }
      ],
      "payable": false,
      "stateMutability": "view",
      "type": "function"
    },
    {
      "constant": true,
      "inputs": [],
      "name": "beneficiary",
      "outputs": [
        {
          "internalType": "address payable",
          "name": "",
          "type": "address"
        }
      ],
      "payable": false,
      "stateMutability": "view",
      "type": "function"
    },
    {
      "constant": true,
      "inputs": [],
      "name": "highestBid",
      "outputs": [
        {
          "internalType": "uint256",
          "name": "",
          "type": "uint256"
        }
      ],
      "payable": false,
      "stateMutability": "view",
      "type": "function"
    },
    {
      "constant": true,
      "inputs": [],
      "name": "highestBidder",
      "outputs": [
        {
          "internalType": "address",
          "name": "",
          "type": "address"
        }
      ],
      "payable": false,
      "stateMutability": "view",
      "type": "function"
    },
    {
      "constant": true,
      "inputs": [],
      "name": "return_address",
      "outputs": [
        {
          "internalType": "address payable",
          "name": "",
          "type": "address"
        }
      ],
      "payable": false,
      "stateMutability": "view",
      "type": "function"
    },
    {
      "constant": false,
      "inputs": [],
      "name": "bid",
      "outputs": [],
      "payable": true,
      "stateMutability": "payable",
      "type": "function"
    },
    {
      "constant": false,
      "inputs": [],
      "name": "withdraw",
      "outputs": [
        {
          "internalType": "uint256",
          "name": "",
          "type": "uint256"
        }
      ],
      "payable": false,
      "stateMutability": "nonpayable",
      "type": "function"
    },
    {
      "constant": false,
      "inputs": [],
      "name": "auctionEnd",
      "outputs": [],
      "payable": false,
      "stateMutability": "nonpayable",
      "type": "function"
    },
    {
      "constant": true,
      "inputs": [],
      "name": "get",
      "outputs": [
        {
          "internalType": "uint256",
          "name": "",
          "type": "uint256"
        }
      ],
      "payable": false,
      "stateMutability": "view",
      "type": "function"
    },
    {
      "constant": true,
      "inputs": [],
      "name": "get_time",
      "outputs": [
        {
          "internalType": "uint256",
          "name": "",
          "type": "uint256"
        }
      ],
      "payable": false,
      "stateMutability": "view",
      "type": "function"
    },
    {
      "constant": true,
      "inputs": [],
      "name": "get_returns",
      "outputs": [
        {
          "internalType": "uint256",
          "name": "",
          "type": "uint256"
        }
      ],
      "payable": false,
      "stateMutability": "view",
      "type": "function"
    },
    {
      "constant": true,
      "inputs": [],
      "name": "get_current_address",
      "outputs": [
        {
          "internalType": "address",
          "name": "",
          "type": "address"
        }
      ],
      "payable": false,
      "stateMutability": "view",
      "type": "function"
    },
    {
      "constant": true,
      "inputs": [],
      "name": "get_highest_bidder",
      "outputs": [
        {
          "internalType": "address",
          "name": "",
          "type": "address"
        }
      ],
      "payable": false,
      "stateMutability": "view",
      "type": "function"
    }
  ],
  "bytecode": "0x608060405234801561001057600080fd5b50604051610ad5380380610ad58339818101604052604081101561003357600080fd5b810190808051906020019092919080519060200190929190505050806000806101000a81548173ffffffffffffffffffffffffffffffffffffffff021916908373ffffffffffffffffffffffffffffffffffffffff1602179055508142016001819055505050610a2d806100a86000396000f3fe6080604052600436106100c25760003560e01c80634b449cba1161007f57806391f901571161005957806391f9015714610299578063966a1961146102f0578063c2b8a50e1461031b578063d57bde7914610372576100c2565b80634b449cba146101ec5780636d4ce63c1461021757806374177c2414610242576100c2565b80630d11b852146100c75780631998aeef1461011e5780632a24f46c146101285780632a6b20461461013f57806338af3eed1461016a5780633ccfd60b146101c1575b600080fd5b3480156100d357600080fd5b506100dc61039d565b604051808273ffffffffffffffffffffffffffffffffffffffff1673ffffffffffffffffffffffffffffffffffffffff16815260200191505060405180910390f35b6101266103c7565b005b34801561013457600080fd5b5061013d61060b565b005b34801561014b57600080fd5b506101546107ff565b6040518082815260200191505060405180910390f35b34801561017657600080fd5b5061017f610846565b604051808273ffffffffffffffffffffffffffffffffffffffff1673ffffffffffffffffffffffffffffffffffffffff16815260200191505060405180910390f35b3480156101cd57600080fd5b506101d661086b565b6040518082815260200191505060405180910390f35b3480156101f857600080fd5b50610201610961565b6040518082815260200191505060405180910390f35b34801561022357600080fd5b5061022c610967565b6040518082815260200191505060405180910390f35b34801561024e57600080fd5b50610257610971565b604051808273ffffffffffffffffffffffffffffffffffffffff1673ffffffffffffffffffffffffffffffffffffffff16815260200191505060405180910390f35b3480156102a557600080fd5b506102ae610997565b604051808273ffffffffffffffffffffffffffffffffffffffff1673ffffffffffffffffffffffffffffffffffffffff16815260200191505060405180910390f35b3480156102fc57600080fd5b506103056109bd565b6040518082815260200191505060405180910390f35b34801561032757600080fd5b506103306109c7565b604051808273ffffffffffffffffffffffffffffffffffffffff1673ffffffffffffffffffffffffffffffffffffffff16815260200191505060405180910390f35b34801561037e57600080fd5b506103876109cf565b6040518082815260200191505060405180910390f35b6000600360009054906101000a900473ffffffffffffffffffffffffffffffffffffffff16905090565b60015442111561043f576040517f08c379a00000000000000000000000000000000000000000000000000000000081526004018080602001828103825260168152602001807f41756374696f6e20616c726561647920656e6465642e0000000000000000000081525060200191505060405180910390fd5b60045434116104b6576040517f08c379a000000000000000000000000000000000000000000000000000000000815260040180806020018281038252601e8152602001807f546865726520616c7265616479206973206120686967686572206269642e000081525060200191505060405180910390fd5b6000600454146105325760045460056000600360009054906101000a900473ffffffffffffffffffffffffffffffffffffffff1673ffffffffffffffffffffffffffffffffffffffff1673ffffffffffffffffffffffffffffffffffffffff168152602001908152602001600020600082825401925050819055505b33600360006101000a81548173ffffffffffffffffffffffffffffffffffffffff021916908373ffffffffffffffffffffffffffffffffffffffff160217905550346004819055507ff4757a49b326036464bec6fe419a4ae38c8a02ce3e68bf0809674f6aab8ad300600360009054906101000a900473ffffffffffffffffffffffffffffffffffffffff16600454604051808373ffffffffffffffffffffffffffffffffffffffff1673ffffffffffffffffffffffffffffffffffffffff1681526020018281526020019250505060405180910390a1565b600154421015610683576040517f08c379a00000000000000000000000000000000000000000000000000000000081526004018080602001828103825260168152602001807f41756374696f6e206e6f742079657420656e6465642e0000000000000000000081525060200191505060405180910390fd5b600660009054906101000a900460ff16156106e9576040517f08c379a00000000000000000000000000000000000000000000000000000000081526004018080602001828103825260238152602001806109d66023913960400191505060405180910390fd5b6001600660006101000a81548160ff0219169083151502179055507fdaec4582d5d9595688c8c98545fdd1c696d41c6aeaeb636737e84ed2f5c00eda600360009054906101000a900473ffffffffffffffffffffffffffffffffffffffff16600454604051808373ffffffffffffffffffffffffffffffffffffffff1673ffffffffffffffffffffffffffffffffffffffff1681526020018281526020019250505060405180910390a16000809054906101000a900473ffffffffffffffffffffffffffffffffffffffff1673ffffffffffffffffffffffffffffffffffffffff166108fc6004549081150290604051600060405180830381858888f193505050501580156107fc573d6000803e3d6000fd5b50565b6000600560003373ffffffffffffffffffffffffffffffffffffffff1673ffffffffffffffffffffffffffffffffffffffff16815260200190815260200160002054905090565b6000809054906101000a900473ffffffffffffffffffffffffffffffffffffffff1681565b600080600560003373ffffffffffffffffffffffffffffffffffffffff1673ffffffffffffffffffffffffffffffffffffffff16815260200190815260200160002054905033600260006101000a81548173ffffffffffffffffffffffffffffffffffffffff021916908373ffffffffffffffffffffffffffffffffffffffff160217905550600260009054906101000a900473ffffffffffffffffffffffffffffffffffffffff1673ffffffffffffffffffffffffffffffffffffffff166108fc829081150290604051600060405180830381858888f19350505050158015610959573d6000803e3d6000fd5b508091505090565b60015481565b6000600454905090565b600260009054906101000a900473ffffffffffffffffffffffffffffffffffffffff1681565b600360009054906101000a900473ffffffffffffffffffffffffffffffffffffffff1681565b6000600154905090565b600033905090565b6004548156fe61756374696f6e456e642068617320616c7265616479206265656e2063616c6c65642ea265627a7a723158203286be49ab56d1d99d301b01155c764b83570eb63a87d498de7aebbdbc8b8dff64736f6c63430005100032",
  "source": "pragma solidity >=0.4.22 <0.7.0;\n\ncontract SimpleAuction {\n  // Parameters of the auction. Times are either\n  // absolute unix timestamps (seconds since 1970-01-01)\n  // or time periods in seconds.\n  address payable public beneficiary;\n  uint public auctionEndTime;\n  address payable public return_address;\n\n  // Current state of the auction.\n  address public highestBidder;\n  uint public highestBid;\n\n  // Allowed withdrawals of previous bids\n  mapping(address => uint) pendingReturns;\n\n  // Set to true at the end, disallows any change.\n  // By default initialized to `false`.\n  bool ended;\n\n  // 3 meaningful Events that will be emitted on changes.\n  event HighestBidIncreased(address bidder, uint amount);\n  event AuctionEnded(address winner, uint amount);\n\n  // The following is a so-called natspec comment,\n  // recognizable by the three slashes.\n  // It will be shown when the user is asked to\n  // confirm a transaction.\n\n  /// Create a simple auction with `_biddingTime`\n  /// seconds bidding time on behalf of the\n  /// beneficiary address `_beneficiary`.\n  constructor(\n    uint _biddingTime,\n    address payable _beneficiary\n  ) public {\n    beneficiary = _beneficiary;\n    auctionEndTime = now + _biddingTime;\n  }\n\n  /// Bid on the auction with the value sent\n  /// together with this transaction.\n  /// The value will only be refunded if the\n  /// auction is not won.\n  function bid() public payable {\n    // No arguments are necessary, all\n    // information is already part of\n    // the transaction. The keyword payable\n    // is required for the function to\n    // be able to receive Ether.\n\n    // Revert the call if the bidding\n    // period is over.\n    require(\n      now <= auctionEndTime,\n      \"Auction already ended.\"\n    );\n\n    // If the bid is not higher, send the\n    // money back.\n    require(\n      msg.value > highestBid,\n      \"There already is a higher bid.\"\n    );\n\n    if (highestBid != 0) {\n      // Sending back the money by simply using\n      // highestBidder.send(highestBid) is a security risk\n      // because it could execute an untrusted contract.\n      // It is always safer to let the recipients\n      // withdraw their money themselves.\n      pendingReturns[highestBidder] += highestBid;\n    }\n    highestBidder = msg.sender;\n    highestBid = msg.value;\n    emit HighestBidIncreased(highestBidder, highestBid);\n  }\n\n  /// Withdraw a bid that was overbid.\n  function withdraw() public returns (uint) {\n    uint amount = pendingReturns[msg.sender];\n    return_address = msg.sender;\n    return_address.transfer(amount);\n    return amount;\n  }\n\n  /// End the auction and send the highest bid\n  /// to the beneficiary.\n  function auctionEnd() public {\n    // It is a good guideline to structure functions that interact\n    // with other contracts (i.e. they call functions or send Ether)\n    // into three phases:\n    // 1. checking conditions\n    // 2. performing actions (potentially changing conditions)\n    // 3. interacting with other contracts\n    // If these phases are mixed up, the other contract could call\n    // back into the current contract and modify the state or cause\n    // effects (ether payout) to be performed multiple times.\n    // If functions called internally include interaction with external\n    // contracts, they also have to be considered interaction with\n    // external contracts.\n\n    // 1. Conditions\n    require(now >= auctionEndTime, \"Auction not yet ended.\");\n    require(!ended, \"auctionEnd has already been called.\");\n\n    // 2. Effects\n    ended = true;\n    emit AuctionEnded(highestBidder, highestBid);\n\n    // 3. Interaction\n    beneficiary.transfer(highestBid);\n  }\n\n  function get() public view returns (uint) {\n    return highestBid;\n  }\n\n  function get_time() public view returns (uint) {\n    return auctionEndTime;\n  }\n\n  function get_returns() public view returns (uint) {\n    return pendingReturns[msg.sender];\n  }\n\n  function get_current_address() public view returns (address) {\n    return msg.sender;\n  }\n\n  function get_highest_bidder() public view returns (address) {\n    return highestBidder;\n  }\n\n}",
  "sourcePath": "/Users/brianpulfer/Desktop/USI/MAI-Second_Year/Fall/Distributed Algorithms 2/Project/EthereumSecondhandMarketPlace/contracts/SimpleAuction.sol",
  "compiler": {
    "name": "solc",
    "version": "0.5.16+commit.9c3226ce.Emscripten.clang"
  },
  "schemaVersion": "3.3.2",
  "updatedAt": "2020-12-13T11:44:03.772Z",
  "networkType": "ethereum",
  "devdoc": {
    "methods": {}
  },
  "userdoc": {
    "methods": {
      "auctionEnd()": {
        "notice": "End the auction and send the highest bid to the beneficiary."
      },
      "bid()": {
        "notice": "Bid on the auction with the value sent together with this transaction. The value will only be refunded if the auction is not won."
      },
      "constructor": "Create a simple auction with `_biddingTime` seconds bidding time on behalf of the beneficiary address `_beneficiary`.",
      "withdraw()": {
        "notice": "Withdraw a bid that was overbid."
      }
    }
  }
}